:04000000A5EF3DF03B
:107B4A00000EF86E000156EF3FF001500302F3CF2A
:107B5A0005F0F4CF06F001500402F3500626025055
:107B6A000302F350062605C001F006C002F0120017
:107B7A00000E0B6E000E0A6E0AD01A0E096EF80E6F
:107B8A00E82EFED7092EFCD700D00A4A0B2A07C0D6
:107B9A0001F008C002F0000E046E640E036EAAEC37
:107BAA003DF001500A5C02500B58D8B01200E5D7DC
:107BBA008E0E116E06D0D8900C320B320A32093270
:107BCA00112A000E09140D6E000E0A140E6E000E14
:107BDA000B140F6EFF0E0C14106E0D500E100F10BA
:107BEA001010D8A4E8D709C001F00AC002F00BC0EF
:107BFA0003F011C004F0000E056E0BEC3EF001C05C
:107C0A0009F002C00AF003C00BF012000450D8B405
:107C1A0005D0015002100310D8A40CD0000E016E3A
:107C2A00000E026E000E036E1200042AD890033270
:107C3A0002320132000E0114066E000E0214076EA3
:107C4A00FE0E0314086E065007100810D8B40CD0A4
:107C5A00ECD7042A010E0126000E0222000E03228E
:107C6A00D890033202320132000E0114066E000E61
:107C7A000214076EFF0E0314086E06500710081050
:107C8A00D8B406D0E6D70406D890013602360336B1
:107C9A0002BE03D0020E0460F6D704A0029ED8905A
:107CAA000432045003120550D8A4038E01C001F017
:107CBA0002C002F003C003F0120014C018F0196ADF
:107CCA001A6A1334183601E3198018501B6E1B50B8
:107CDA00D8A407D0000E126E000E136E000E146E9A
:107CEA00120017C018F0196A1A6A1634183601E316
:107CFA0019801850206E2050D8A407D0000E126E9A
:107D0A00000E136E000E146E120020507B0F1B26FD
:107D1A0014C020F01750201A800E2016138E168ECB
:107D2A00FF0E1516FF0E1616000E1716000E1C6E05
:107D3A00000E1D6E000E1E6E070E1F6E12A006D0DC
:107D4A0015501C2616501D2217501E22D890143288
:107D5A0013321232D8901536163617361F2EEED732
:107D6A00090E1F6E12A006D015501C2616501D2291
:107D7A0017501E22D890143213321232D8901E3263
:107D8A001D321C321F2EEED71CC001F01DC002F09E
:107D9A001EC003F01BC004F020C005F00BEC3EF03F
:107DAA0001C012F002C013F003C014F0120003C0A5
:107DBA0005F0066A076A0234053601E306800550B3
:107DCA000F6E0F50D8A409D0000E016E000E026E7D
:107DDA00000E036E000E046E1200170E056E01C02F
:107DEA0006F002C007F003C008F00528096E04D0A7
:107DFA00D890083207320632092EFAD706500A6E90
:107E0A00028EFF0E0116FF0E0216000E0316015017
:107E1A000B6E02500C6E03500D6E0E6A8E0E0F5EC4
:107E2A000FAE16D00F50800A8F0FD8B009D0000EAF
:107E3A00016E000E026E000E036E000E046E12003A
:107E4A00D8900E320D320C320B320F3EF9D715D0C4
:107E5A00170E0F640FD0000E016E000E026E000E98
:107E6A00036E000E046E1200D8900B360C360D36D7
:107E7A000E360F060F50D8A4F7D70A50D8B408D038
:107E8A000E1E0D1E0C1E0B6C000E0C220D220E2255
:107E9A000BC001F00CC002F00DC003F00EC004F0DC
:107EAA001200F20ED36E92909292929492969288C7
:107EBA00000E336E010E326E000E2B6EB00E2C6E5B
:107ECA00410E2D6E100E276E0E0E286E000E296EB4
:107EDA00000E2A6E27C009F028C00AF029C00BF04C
:107EEA002AC00CF0DDEC3DF009C012F00AC013F014
:107EFA000BC014F02BC015F02CC016F02DC017F0D3
:107F0A0062EC3EF012C034F013C035F014C036F003
:107F1A000A0E236E000E246E000E256E000E266ECB
:107F2A0034C001F035C002F036C003F0DCEC3EF09C
:107F3A0001C02EF002C02FF003C030F004C031F0AF
:107F4A00899689808994000E086E010E076EBDEC31
:107F5A003DF041D089848992899080B8FED789946E
:107F6A008980898623C007F024C008F0BDEC3DF063
:107F7A008990000E336E010E326E000E336E010EC2
:107F8A0029D0899089828994899634C001F035C0B4
:107F9A0002F036C003F0DCEC3EF001C02EF002C065
:107FAA002FF003C030F004C031F00BD0000E086E81
:107FBA00010E076EBDEC3DF02E06000E2F5A305A08
:107FCA00315A2E502F1030103110D8A4EFD7000E8E
:107FDA00336E000E326E32C021F033C022F02250CE
:107FEA00000AD8A4F8D72150000AD8B4B3D7010A96
:067FFA00D8B4C7D7F0D790
:020000040020DA
:08000000FFFFFFFFFFFFFFFF00
:020000040030CA
:0E00000000091F1EFF8385FF0FC00FE00F4099
:00000001FF
