:0400000048EF04F0D1
:090800000048656C6C6F0A0000F1
:10080A00F20ED36E010E926E8A0EC06E000EC26E8A
:10081A00C280C282C2B2FED7C290C350C4CF01F016
:10082A00026A01C002F0016A0110036E0250046EEE
:10083A001200AC8AAB8E94948294310ECB6E050E64
:10084A00CA6E250EBE6E1C0EBD6E05EC04F0010EBE
:10085A00026E080E036E33EC04F0F7D7040E046E32
:10086A00000E056E03D006504FEC04F002C0F6FFEE
:10087A0003C0F7FF024A032A0800F5CF06F0065024
:10088A00D8B41200F0D7000EF86E080EF76E000109
:10089A001EEF04F0016E9EA8FED701C0ADFF120044
:020000040020DA
:08000000FFFFFFFFFFFFFFFF00
:020000040030CA
:0E00000000091F1EFF8385FF0FC00FE00F4099
:00000001FF
